:100000000C947F030C94C6030C94C6030C94C60393
:100010000C94C6030C94C6030C94C6030C94C6033C
:100020000C94C6030C94C6030C946D280C943F29C1
:100030000C9491230C94C6030C94C6030C94C60331
:100040000C94C6030C94C6030C94C6030C94C6030C
:100050000C94C6030C94EA230C94C6030C94C603B8
:100060000C94C6030C94C6030C94C6030C94C603EC
:100070000C94C6030C94C6030C94C6030C94C603DC
:100080000C94C6030C94C6030C94C6030C94C603CC
:100090000C94C6030C94C6030C94C6030C94C603BC
:1000A0000C94C6030C94C6030C94C603ED05ED0531
:1000B0001F061F066C068A06AB07AB0795062A07C4
:1000C0003B073B079B07AB07AB07A4074B084B0855
:1000D0005D085D0854085D085D085D084B084B0825
:1000E00059085D085D085908AC29D329CB2AD329C2
:1000F000CB2A1F2A422ACB2A992AA82A165C1E003C
:100100001F002000210022002300240025002600DB
:1001100027002D002E0000002A004A002B000000BE
:1001200014001A000800150017001C0018000C002D
:10013000120013002F00300031004B00025100006C
:1001400004001600070009000A000B000D000E0055
:100150000F0033003400280000004E00E10035009D
:100160001D001B00060019000500110010003600DC
:10017000370038000000E50052004D00E000E200CA
:100180000000E30028000000025100002C430000A2
:10019000E7000151E600500051004F0035003A00E1
:1001A0003B003C003D003E003F004000410042005B
:1001B00043004400450000004C00490001000000DD
:1001C000680069006A006B006C006D008000000030
:1001D0004A004B0052004E004F00005C3900000006
:1001E000C45CC65CC85CCA5CCC5C000081000000DA
:1001F0004D00500051000100000001000100C35CEF
:10020000C55CC75CC95CCB5CCD5C00007F000000B6
:1002100000000000000001004B000100010001008F
:1002200000000100010000000100000001000000CA
:100230000100010001004A004E004D0035001E0281
:100240001F02200421022202230224022502260288
:10025000270201002E0201004C00490001000000AD
:10026000380031002D002F00300000002400250050
:10027000260027002A0000000100010039000000CC
:10028000360033002102260227020000210022004E
:1002900023003600000001000000010001003500CD
:1002A0001E02380220022F02300200001E001F0032
:1002B00020003700000001004B0001000100010098
:1002C0000000010028000000010000000100000003
:1002D0000100010001004A004E004D000000000036
:1002E000000000000000000000000000000000000E
:1002F00000000000000000000000000000000000FE
:10030000380031002D002F003000000000005200A6
:10031000000000000000000000000000C35C0000BE
:10032000360033002102260227020000500051004F
:100330004F0000000000000000000000010000006D
:100340001E02380220022F023002000000000000CE
:10035000000000000000000000000000010001009B
:10036000000001000100000000000000010000008A
:1003700000000000000000000000000000047F3FBB
:100380001F643214643214783C1E1E140A052223A2
:10039000252628292A2C2D2F3032333536383A3B62
:1003A0003D3E4042434547494A4C4E5051535557B4
:1003B000595A5C5E6062646668696B6D6F717375D3
:1003C00077797B7D7F81838587898A8C8E909294D3
:1003D00096989A9C9E9FA1A3A5A7A8AAACAEAFB1E0
:1003E000B3B4B6B8B9BBBCBEBFC1C2C3C5C6C7C92A
:1003F000CACBCCCDCED0D1D2D2D3D4D5D6D7D7D8E4
:10040000D9D9DADADBDBDBDCDCDCDCDCDDDDDDDD35
:10041000DCDCDCDCDCDBDBDBDADAD9D9D8D7D7D63D
:10042000D5D4D3D2D2D1D0CECDCCCBCAC9C7C6C5F4
:10043000C3C2C1BFBEBCBBB9B8B6B4B3B1AFAEAC3A
:10044000AAA8A7A5A3A19F9E9C9A98969492908EE5
:100450008C8A89878583817F7D7B79777573716FBE
:100460006D6B6968666462605E5C5A59575553519A
:10047000504E4C4A4947454342403E3D3B3A383650
:10048000353332302F2D2C2A292826252322FFAA66
:100490007F55400001010101010101010102020239
:1004A0000202020202020303030303030303040420
:1004B00004040404040505050505060606060607EA
:1004C0000707070708080808090909090A0A0A0BA3
:1004D0000B0B0C0C0C0D0D0D0E0E0E0F0F0F101044
:1004E00011111112121313141415151616171718CB
:1004F0001819191A1A1B1B1C1D1D1E1E1F20202136
:100500002222232424252626272829292A2B2C2D7C
:100510002D2E2F30313232333435363738393A3B9D
:100520003C3D3E3F404142434445464748494A4C92
:100530004D4E4F50515354555658595A5B5D5E5F5E
:10054000616264656668696B6C6D6F7072737577F4
:10055000787A7B7D7E8082838587888A8C8E8F9156
:10056000939596989A9C9EA0A2A3A5A7A9ABADAF80
:10057000B1B3B5B7BABCBEC0C2C4C6C9CBCDCFD16A
:10058000D4D6D8DBDDDFE2E4E7E9EBEEF0F3F5F813
:10059000FAFDFF10034B004200440036003700769E
:1005A000003200000010034B00420044004600618E
:1005B000006E00730000000403090409023B0002FE
:1005C0000100A0FA09040000010301010009211142
:1005D0000100012240000705810308000A09040107
:1005E00000010300000009211101000122B60007EB
:1005F00005820320000A1201000200000008424B9D
:10060000676002000102000105010902A1018502E3
:100610000901A100050919012908150025019508FE
:10062000750181020501093009311581257F950287
:100630007508810609381581257F950175088106A1
:10064000050C0A38021581257F950175088106C0C1
:10065000C005010980A101850319012AB700150110
:1006600026B700950175108100C0050C0901A10194
:10067000850419012AA002150126A0029501751012
:100680008100C005010906A1018505050719E029BA
:10069000E715002501950875018102050719002954
:1006A000EF1500250195F075018102050819012952
:1006B00005950575019102950175039101C005012C
:1006C0000906A101050719E029E71500250195088C
:1006D000750181029501750881010507190029FF3F
:1006E000150026FF009506750881000508190129E7
:1006F00005950575019102950175039101C01124BD
:100700001FBECFEFDAE0DEBFCDBF04B603FE27C0C9
:1007100080911D0390911E03A0911F03B0912003AF
:100720008730904BA740B04BD1F410921D0310922C
:100730001E0310921F031092200314BE84B7877FFC
:1007400084BF0FB6F894A89580916000886180936B
:100750006000109260000FBEE0E0F8E3099511E040
:10076000A0E0B1E0E8EEF7E502C005900D92A43CF0
:10077000B107D9F723E0A4ECB1E001C01D92AD317F
:10078000B207E1F70E9448140C94F22B0C9400007D
:1007900081E0089581E008950C94CA0308950C94B3
:1007A000CE031F93CF93DF9300D000D01F92CDB71D
:1007B000DEB749835A836B833091C60189819A8160
:1007C000311114C0662359F0222349F00E94EF0929
:1007D000182F682F89819A810E94980903C00E946E
:1007E000C309182F69817A81812F04C00E94EF0903
:1007F00069817A810F900F900F900F900F90DF9189
:10080000CF911F910C949210FC01262F40815181B1
:100810006281738184810C94D10381E00895CF9328
:10082000DF93EC0160E00E940404BE01DF91CF91F0
:100830000C94CF030E94C1120E94A6040E94AA1F1A
:100840000C94FE120C94FA1208950E9439080E942A
:1008500024042FEF84E39CE0215080409040E1F796
:1008600000C000000C9410240F931F93CF93DF93CC
:100870008C0161E00E940404EC01B8010E94CC03E9
:10088000882309F44BC0B801CE010E940B1F8823B6
:1008900009F444C0B801CE010E9458208823F1F128
:1008A000B801CE010E94AA208823C1F1B801CE016F
:1008B0000E94DC21882391F1B801CE010E94521DD3
:1008C000882361F1F8018281882309F1CB358DE518
:1008D000D807C1F050F4C115FCE5DF0781F0CF3D2A
:1008E000DC45A9F40E948A0F19C0CC35EDE5DE077E
:1008F00061F0CD35DD4559F40E940E0E08C00E940E
:1009000025040CC00E94170E02C00E941A0EC801D6
:10091000DF91CF911F910F910C94C80380E0DF917C
:10092000CF911F910F91089508950C94940481E044
:100930000895CF93C82F0E949704882329F0C1FD02
:1009400002C05C9A01C05C98CF910895549A5C9A59
:100950000895CF93C82F0E9495048C2F0E9499046C
:10096000CF910895CF93DF93CDB7DEB72B970FB616
:10097000F894DEBF0FBECDBF4F83588769877A8753
:100980008B8761110E943D0E9E012F5F3F4F86E0D5
:10099000F90111928A95E9F785E0FE013796D901B0
:1009A00001900D928A95E1F789819A814C815D8150
:1009B000452B31F09F3F31F491E08F3F19F403C094
:1009C00091E001C090E090FF09C049815A816B819C
:1009D0007C818D819E810E943D0D05C0C9010E94D0
:1009E0000D048111F2CF2B960FB6F894DEBF0FBE27
:1009F000CDBFDF91CF910895FC01808191810E944C
:100A0000310A0895CF93882309F450C0C82F8CEF82
:100A10008C0F813AD0F46C2F8091000190910101EC
:100A20000E948822882349F06C2F809100019091C8
:100A300001010E9413230E946F0E6C2F8091000110
:100A4000909101010E9408230CC080E28C0F883035
:100A500058F4C77081E001C0880FCA95EAF70E9478
:100A6000200ECF910C946F0EEBE5EC0FE33040F4C9
:100A7000F0E0EA5AFE4F808190E0CF910C9446223C
:100A8000E8E5EC0FE73150F4F0E0EE0FFF1FE85D12
:100A9000FE4F80819181CF910C945C22CD3E30F04D
:100AA0008C2F0E94D514CF910C94A715CF91089547
:100AB000882389F19CEF980F913A40F4682F809138
:100AC0000001909101010E9413230DC090E2980F44
:100AD000983058F4877091E001C0990F8A95EAF731
:100AE000892F0E94260E0C946F0E9BE5980F933071
:100AF00020F480E090E00C94462298E5980F97311E
:100B000020F480E090E00C945C228D3E20F00E9466
:100B100030150C94A71508951F93CF93DF93182FCA
:100B2000EB010E940205209741F08FE99FE00197B9
:100B3000F1F700C000002197F6CF812FDF91CF9110
:100B40001F910C945805893319F060E070E002C0E1
:100B500060E570E00C948C05882321F00E94200E43
:100B60000C946F0E0895882321F00E94260E0C9499
:100B70006F0E0895CF92DF92EF92FF920F931F9323
:100B8000CF93DF937C01062FC72FFC01D281158103
:100B900012951F700E94F50D882399F0DD2389F0CE
:100BA0008C2F807F803421F080E2800F883048F0E5
:100BB00082E00E94BF0E0E94F50D91E0D82ED9264A
:100BC00001C0D12CCC2EC2948FE0C8228C2D90E095
:100BD000FC01EA5AFF4F0C94592B8C2F807FCF7069
:100BE000882311F0C295C07FDD2399F0CC2309F44E
:100BF0008DC180E2800F883010F0011104C08C2F6D
:100C00000E94200E03C08C2F0E94300E0E946F0E97
:100C10007DC1802F0E945805CC2309F49CC180E23D
:100C2000800F883010F0011104C08C2F0E94260E16
:100C300003C08C2F0E94360E0E946F0E8CC18C2F29
:100C4000807FCF70803211F0C295C07F002319F0F1
:100C50000130C9F022C0DD2371F0112341F01130C1
:100C600031F40E94500E8C2B0E94580E74C10E94C9
:100C7000500E8C2B1DC0112319F0113009F46BC1DB
:100C80000E94650E25C0DD2321F0163008F063C1F7
:100C90000EC0153008F05FC11BC0DD2361F01123C9
:100CA00031F0F701858180FF31C18F7085838C2FF2
:100CB0000E94AC0550C1112359F0093309F037C126
:100CC000FFEF27EE83E0F15020408040E1F72DC197
:100CD0008C2F0E94B3053FC18C2F8695869583701B
:100CE00019F0813061F037C1DD2321F0802F9C2F76
:100CF000937002C080E090E00E94462234C1DD2360
:100D000021F0802F9C2F937002C080E090E00E9421
:100D10005C2229C1802FDD2319F00E94D51402C066
:100D20000E9430150E94A7151EC18C2F837009F0F8
:100D300045C0D11114C1402F429546954770440FCC
:100D4000440F602F6F70862F90E0A0E0B0E0042E7B
:100D500004C0880F991FAA1FBB1F0A94D2F704FF73
:100D600010C00FE010E020E030E004C0000F111FC1
:100D7000221F331F4A95D2F7009510952095309584
:100D800003C000E010E09801C695C695C370BC0191
:100D9000CD01602B712B822B932BC23049F058F47C
:100DA000C13019F00E94AE08DAC00E949C08D7C07A
:100DB0000E94C008D4C00E949A08D1C0DD2319F057
:100DC0008C2F817001C08695882309F4C8C0402FFC
:100DD000429546954770440F440F602F6F70862FE1
:100DE00090E0A0E0B0E0042E04C0880F991FAA1F75
:100DF000BB1F0A94D2F704FF10C00FE010E020E000
:100E000030E004C0000F111F221F331F4A95D2F794
:100E1000009510952095309503C000E010E09801F2
:100E2000C695C695C370BC01CD01602B712B822B7A
:100E3000932BC23049F058F4C13019F00E94730965
:100E40008EC00E9461098BC00E94850988C00E94E3
:100E5000D40885C0CF70DD2339F08C2F0E94FA08AA
:100E6000802F0E94AC057BC0802F0E94B3058C2F81
:100E70000E941B0974C0023F01F128F4003F41F0B9
:100E8000013FA1F03FC0033FF9F0043F39F13AC000
:100E9000DD2341F0153008F05EC08C2F8F710E9469
:100EA000400959C0163008F056C0F7CFDD2339F09D
:100EB0008C2F8F710E94FA084EC0DD23C9F38C2F4E
:100EC0008F710E941B0947C0DD2329F08C2F8F7181
:100ED0000E94E50840C00E94E0083DC0DD2349F0C3
:100EE000CF718C2F0E94FA0863E08C2F0E94A40E11
:100EF00032C081E00E94BF0E123068F182E00E9491
:100F0000BF0E29C0DD2331F0112391F2802F0E9402
:100F1000020521C0112399F2093349F49FEFE7EE4E
:100F2000F3E09150E040F040E1F700C00000802F76
:100F30000E94580510C04C2F4F70602FC7010E94AF
:100F40008E100E945F0A0FC04C2F4F70602FC70198
:100F50000E94911008C088EF8C0D843020F40E940C
:100F600012220E94A904DD20C9F00E94F10D80FD2B
:100F700015C0F70112820E94EB0D0E94FA08C7010A
:100F80000E94EF070E94EB0DDF91CF911F910F910F
:100F9000FF90EF90DF90CF900C941B09DF91CF91E1
:100FA0001F910F91FF90EF90DF90CF9008950F93D6
:100FB0001F93CF93DF93EC01688179818A810E942E
:100FC0003C0A8C010E9497090E948808B801CE0152
:100FD0000E94BA05DF91CF911F910F910895CF9391
:100FE000DF93EC01988189812B813C81232B31F0A7
:100FF0008F3F31F481E09F3F19F403C081E001C0CD
:1010000080E080FD19C0CE010E94340481110CC023
:101010000E94F50D882381F08A81882369F082E09F
:10102000DF91CF910C94BF0ECE010E94D707CE0165
:10103000DF91CF910C940F04DF91CF91089580E060
:1010400090E00E94462280E090E00E945C220E9494
:101050003D0E0E944D0E0E946F0E0E94D8160C94F9
:10106000A71580910001909101010E941E230C940C
:101070001F080E942D0E0C943108E92FE295EF70A5
:101080004E2F50E0FA013297EE30F105B0F4EA59F4
:10109000FF4F0C94592B803F91F018F4883E68F470
:1010A0000EC0843F51F40BC0883E48F0813F29F4C4
:1010B00006C093FB882780F9089580E0089581E0B9
:1010C0000895FC01808191810E94310A0E943D08AF
:1010D0000895CF93DF9300D000D01F92CDB7DEB735
:1010E0000F900F900F900F900F90DF91CF91089578
:1010F000CF93DF9300D000D000D0CDB7DEB72696D7
:101100000FB6F894DEBF0FBECDBFDF91CF9108952B
:10111000089508950C9489080C948A080E948C08FC
:101120006093FD017093FE018093FF019093000294
:101130000C941F080C948E080F931F930091FD01CF
:101140001091FE012091FF0130910002602B712B64
:10115000822B932B1F910F910C948E080F931F934A
:101160000091FD011091FE012091FF0130910002DC
:1011700060237123822393231F910F910C948E0877
:101180000F931F930091FD011091FE012091FF012B
:101190003091000260277127822793271F910F91BA
:1011A0000C948E080C9489080E94D2086093F9016F
:1011B0007093FA018093FB019093FC010C941F083B
:1011C00060E070E0CB010C94D4080F931F9341E0D2
:1011D00050E060E070E08A019B0104C0000F111F25
:1011E000221F331F8A95D2F7C901B8011F910F91B1
:1011F0000C94D4080F931F9341E050E060E070E03E
:1012000004C0440F551F661F771F8A95D2F780913F
:10121000F9019091FA01A091FB01B091FC018A01C2
:101220009B01082B192B2A2B3B2BC901B8011F91BD
:101230000F910C94D4080F931F9341E050E060E0AD
:1012400070E004C0440F551F661F771F8A95D2F7C0
:1012500040955095609570958091F9019091FA01B3
:10126000A091FB01B091FC018A019B010823192385
:101270002A233B23C901B8011F910F910C94D40874
:101280000F931F9341E050E060E070E004C0440F12
:10129000551F661F771F8A95D2F78091F9019091AB
:1012A000FA01A091FB01B091FC018A019B01082782
:1012B00019272A273B27C901B8011F910F910C94C8
:1012C000D4080F931F930091F9011091FA01209116
:1012D000FB013091FC01602B712B822B932B1F9112
:1012E0000F910C94D4080F931F930091F901109162
:1012F000FA012091FB013091FC01602371238223CC
:1013000093231F910F910C94D4080F931F93009176
:10131000F9011091FA012091FB013091FC01602745
:101320007127822793271F910F910C94D408089559
:1013300020E1929F800D1124E82FE695E695E69531
:10134000877051E001C0550F8A95EAF785E0E89F64
:10135000F0011124E953FE4F20E030E070E04081BD
:10136000CB01022E02C0969587950A94E2F7817010
:10137000819584278523842781932F5F3F4F2530D4
:10138000310569F7089520E1929F800D1124682F9F
:10139000669566956695982F977085E0689FB00171
:1013A000112440E050E080E0FB01E40FF51FE95319
:1013B000FE4F208130E0092E02C0369527950A9411
:1013C000E2F721703327042E01C0220F0A94EAF7B6
:1013D000822B4F5F5F4F4530510531F70895BF9223
:1013E000CF92DF92EF92FF920F931F93CF93DF93F1
:1013F0008C01C090F901D090FA01E090FB01F090CF
:10140000FC018091FD019091FE01A091FF01B0913E
:101410000002C82AD92AEA2AFB2ACFE1D0E0D70164
:10142000C6010C2E04C0B695A795979587950A948A
:10143000D2F780FD04C0219790F7B12C07C0BC2ED5
:10144000B8018C2F0E94CB110197A9F38B2DDF914E
:10145000CF911F910F91FF90EF90DF90CF90BF90B1
:101460000895CF93DF93EC010E94EF09BE010E9423
:10147000CB11DF91CF9108951F93CF93DF93EB01B1
:101480009091C601992321F0CB010E94310A13C02B
:10149000882349F0CB010E94EF09182F682FCE0155
:1014A0000E94980904C0CB010E94C309182FBE01F5
:1014B000812F0E94CB11DF91CF911F910895EF9260
:1014C000FF920F931F93CF93DF938C01892B09F425
:1014D0006CC0F12CEE24E394E8012196F80184918C
:1014E000843740F4843008F051C0813081F082307C
:1014F00019F15BC0853709F444C0A8F19CE7980F47
:10150000903708F052C08F770E94580541C00E5F97
:101510001F4FFE01849190E2980F983050F487702D
:10152000FE2D01C0FF0F8A95EAF78F2F0E94400E13
:1015300014C00E9402052DC00E5F1F4FFE01849152
:1015400090E2980F983060F48770FE2D01C0FF0F75
:101550008A95EAF78F2F0E94460E0E946F0E19C0DF
:101560000E94580516C00E5F1F4FFE01C491CC2388
:1015700081F08FE99FE00197F1F700C00000C150B2
:10158000F6CF0E5F1F4FFE01F49003C00E940205CC
:101590008E018F2D882309F49FCFEFE9FFE031976B
:1015A000F1F700C000008150F5CFDF91CF911F917E
:1015B0000F91FF90EF9008951F93CF93DF93C09109
:1015C000010216E080910202C81799F0D0E01C9F3A
:1015D000F0011D9FF00D1124ED5FFD4F4081518101
:1015E00062817381848195810E9478082196C770F9
:1015F000E9CFDF91CF911F9108954091330250912F
:1016000034026091350270913602809137029091D8
:1016100038020C9478080F931F93CF93DF93809137
:10162000380282958F7009F05DC080913502882361
:1016300009F458C0809101021091020260913302B6
:1016400070913402C0913602D091370291E06F3F21
:1016500009F090E0292F06E0811709F443C0209794
:1016600021F07F3F21F030E003C031E001C0322F94
:1016700090E030FD34C0089FF001099FF00D112467
:10168000DF01AD5FBD4F11963C911197371327C015
:101690003C91361324C012963C91129731111FC011
:1016A00013964D915C9114974C1B5D0B483C510572
:1016B000B0F4809138028F70806180933802E85FC7
:1016C000FD4F80818F708061808383E392E00E9470
:1016D000EF07DF91CF911F910F910C94DC0A0196D7
:1016E0008770BACFDF91CF911F910F9108959F928C
:1016F000AF92BF92CF92DF92EF92FF920F931F9320
:10170000CF93DF93CDB7DEB761970FB6F894DEBF06
:101710000FBECDBF8C0185E0F801DE011D96019062
:101720000D928A95E1F7F801E28090913302609181
:10173000340220913602309137022115310531F003
:101740006F3F31F481E09F3F19F403C081E001C095
:1017500080E0F82FF1709F2E80FD3FC1F80140819D
:101760005181A380B48083E3C82E82E0D82EF0900C
:101770003502F501E21BF30BFF2009F4D9C080917B
:101780003802E83CF10508F095C0282F207F09F0C9
:1017900052C0561313C0491311C0FE2CE1100EC0E5
:1017A0008F708061809338020E94FD0AC6010E94FA
:1017B000EF0780913802F80185834CC1AB2831F0E6
:1017C0005F3F31F481E04F3F19F403C081E001C075
:1017D00080E080FD03C081E08E2502C080E090E0C3
:1017E000F82FF170FF2E80FF1CC080910102209124
:1017F000020236E0821709F40BC190E0389FF00135
:10180000399FF00D1124ED5FFD4F6181561306C025
:101810006081461303C06281E61203C0019687709F
:10182000E9CFFE2CEE2009F415C1809138028160C9
:101830008093380254C0561306C0491304C0E11007
:1018400002C0F80199C0C8010E946108882361F1B3
:10185000EE2051F120913802822F82958F7090E016
:10186000029774F0809133029091340298878F83AD
:101870001986BB86AA862C87CE0107960E94EF07A1
:1018800086E0F801A3E3B2E001900D928A95E1F7BA
:101890000E940B0B0E94FD0A0AC0561711F1C801E5
:1018A0000E94610881112CC0C8010E94EF07FF242B
:1018B000F394D0C0282F207F81F77A2DB98AA88A87
:1018C0006E2D89890E94690883E392E00E94EF07E8
:1018D00086E0F60111928A95E9F70E94FD0AF12C43
:1018E000B9C04913DCCFE110DACFF8018583C80114
:1018F0000E94EF0786E0F60111928A95E9F7AAC0E7
:10190000EE2091F220913802822F82958F7090E024
:1019100002970CF4B5CF80913302909134029A83F0
:1019200089831B82BD82AC822E83CE010196A6CF15
:10193000E83CF10508F044C0FE2CEE2009F4B4CFD9
:10194000561330C049132EC02091380220FD21C00B
:10195000822F82958F70482F50E041155105C9F0B4
:10196000F80125834F30510541F08F5F982F9295F4
:10197000907F822F8F70892B8583C8010E94EF078B
:1019800086E0F801A3E3B2E001900D928A95E1F7B9
:101990003CC086E0F801A3E3B2E001900D928A9585
:1019A000E1F758C0C8010E946108811169CF809198
:1019B0003802816080933802C8010E94EF074AC054
:1019C0007A2DB98AA88A6E2D89890E94690886E0D5
:1019D000F60111928A95E9F718C0EE2009F464CF58
:1019E000C8010E946108F82E882309F45DCF86E0C3
:1019F000F801A3E3B2E001900D928A95E1F783E349
:101A000092E00E94FC040E940B0B0E94FD0A22C07F
:101A10004D875E878D859E850E94310A292F2295EC
:101A20002F70223028F49F7039F0811105C00BC04F
:101A3000243028F49F7049F4805E883020F0C8017B
:101A40000E94EF079F2CF92C05C0F8019581907F2B
:101A500099F7F9CF8F2D61960FB6F894DEBF0FBEC0
:101A6000CDBFDF91CF911F910F91FF90EF90DF904D
:101A7000CF90BF90AF909F9008951F93CF93DF9327
:101A8000CDB7DEB72C970FB6F894DEBF0FBECDBF33
:101A90004F83588769877A878B879C87CE01079603
:101AA0000E94770B8823D1F09F8188852A853B850A
:101AB000232B31F08F3F31F481E09F3F19F403C0B5
:101AC00081E001C080E080FD47C04F815885698575
:101AD0007A858B859C850E9478083EC086E0FE0151
:101AE0003796DE01119601900D928A95E1F7FF81FC
:101AF000E8856A857B856115710531F0EF3F31F42A
:101B000081E0FF3F19F403C081E001C080E080FD67
:101B100023C02091020230E0C90101968770992705
:101B20004091010250E084179507F1F1F983EA83AF
:101B30007D836C8396E0929FD001939FB00D11241A
:101B4000AD5FBD4FFE01319601900D929A95E1F780
:101B5000809302020E94DC0A16E0809101029091BB
:101B60000202891771F1189FC00111248D5F9D4FEA
:101B70000E94770B882329F1E09101021E9FF0015A
:101B80001124ED5FFD4F4081518162817381848119
:101B900095810E9478088091010290E001968770FB
:101BA000992780930102D9CF0E943908109202022E
:101BB00010920102E3E3F2E086E0DF011D928A95D4
:101BC000E9F72C960FB6F894DEBF0FBECDBFDF91BC
:101BD000CF911F91089580913902859585958595BE
:101BE0000895809139028770089590913902977015
:101BF00081E009F480E008959091C10292FB2227D0
:101C000020F9281751F080FB92F99093C10280913E
:101C1000C0029091C1020C94060F08958091C102F8
:101C200082FB882780F991E089270C94FC0D81E0E4
:101C30000C94FC0D80E00C94FC0D80915D020895E5
:101C400090915D02892B80935D020895809590911B
:101C50005D02892380935D02089510925D020895CC
:101C600090915C02892B80935C02089580959091FD
:101C70005C02892380935C02089510925C020895AF
:101C800090915B02892B80935B02089580959091DF
:101C90005B02892380935B02089510925B02089592
:101CA00080913A02089508950C94530E0C94540EAA
:101CB0009091C10292FD08C090913A02981721F0CC
:101CC00080933A020C94560E089580913A0288232C
:101CD00029F010923A0280E00C94560E0895E0919B
:101CE0000001F091010180915D028083E09100018B
:101CF000F0910101908180915C02892B8083E091B9
:101D00000001F0910101908180915B02892B808319
:101D100080913A02882381F0E0910001F091010165
:101D20009081892B808380910001909101010E9414
:101D3000722281110E94650E809100019091010133
:101D40000C941E220C94530E9091C10292FD10C06F
:101D500098E0899F90011124262B209339020E943C
:101D6000FA08809139028595859585950C94A20E87
:101D70000C94FA081092390280E00C94A20E209183
:101D800039028095822380933902982F977041F40D
:101D900030E0482F082E000C550B2417350721F48E
:101DA0009091C10292FF07C08595859585950E9407
:101DB0001B090C94BA0E08956FEF7FEF80E090E05E
:101DC0000C94DC2B80E090E00E94B82B21E0893E4F
:101DD0009E4F09F020E0822F089582E090E00C945D
:101DE000AA2B83E090E00C94AA2BCF9384E090E0A0
:101DF0000E94AA2BC82F82E290E00E94AA2B2C2FCF
:101E000030E0A901582BCA01CF910895CF93C92F73
:101E1000682F84E090E00E94BE2B6C2F82E290E05D
:101E2000CF910C94BE2BAB01BC018FE090E00C94E1
:101E3000D02BAB01BC0183E190E00C94D02B60E08F
:101E400070E0CB010C94190F60E070E0CB010E94B0
:101E5000130F0C941F0F69EE7EEF80E090E00E945C
:101E6000DC2B60E082E090E00E94BE2B60E083E02B
:101E700090E00E94BE2B1092FD011092FE01109284
:101E8000FF011092000260E084E090E00E94BE2B0F
:101E900060E082E290E00E94BE2B60E085E090E08E
:101EA0000E94BE2B60E086E090E00E94BE2B6FEFA8
:101EB00087E090E00E94BE2B40E050E0BA0188E04D
:101EC00090E00E94D02B60E08DE090E00E94BE2B5D
:101ED00040E050E0BA0188E190E00E94D02B60E041
:101EE00087E190E00E94BE2B40E050E0BA018CE117
:101EF00090E00E94D02B60E070E080E290E00E94D1
:101F0000DC2B40E050E0BA0188E190E00E94D02B49
:101F10000C94240F0C942B0F682F8EE090E00C94FF
:101F2000BE2B0E94CF2360936D0270936E0280934C
:101F30006F02909370026093690270936A028093BB
:101F40006B0290936C02089585B7806885BF85B752
:101F5000806885BF089581E008950C94AB0F0895C3
:101F60000C94AF0F0C94AF0F0C94B20F0C94AF0FF6
:101F70000C94B60F0C94AF0F0E94A40F87EA92E165
:101F80000E9434240E94BA0F0C94B80F0E94B00F24
:101F90000C94AF0F0E94BA230E94AF130E942F1E11
:101FA0000E94601C0C94B40F6F927F928F929F924C
:101FB000AF92BF92CF92DF92EF92FF920F931F9357
:101FC000CF93DF93CDB7DEB72A970FB6F894DEBF75
:101FD0000FBECDBF0E94C21381110E94910F3FE539
:101FE000832E32E0932E00E010E0C02E802F0E945E
:101FF000E5125C01F401619071904F016826792629
:1020000061147104B1F40F5F1F4F0530110569F7BA
:102010008FEF89838A831B820E94C3238160782F7C
:102020009D838C8349815A816B818D810E94B2048A
:102030003AC08091710281FD0E94EE12D12CEE24F3
:10204000E394F12CC3018E219F21892B29F10E9459
:10205000AD0F8823A9F0DE82CF82AE20BF2081E0C1
:10206000AB2809F480E088870E94C3238160782F21
:102070009A8789874E815F8168858A850E94B2042C
:10208000000F111FF801E15AFD4F80819181E82670
:10209000F926F182E08207C0D394EE0CFF1CF0E138
:1020A000DF12D0CFB0CF0E94A41C0E94A91F0E94B3
:1020B000C5150E94122290915E028917D1F00E94EC
:1020C000122280935E022A960FB6F894DEBF0FBEEE
:1020D000CDBFDF91CF911F910F91FF90EF90DF90D7
:1020E000CF90BF90AF909F908F907F906F900C9407
:1020F000A9042A960FB6F894DEBF0FBECDBFDF91BC
:10210000CF911F910F91FF90EF90DF90CF90BF90F4
:10211000AF909F908F907F906F90089580E090E0B7
:1021200008950895E72FF0E095E0899FE00DF11DF7
:10213000112484E0EE0FFF1F8A95E1F7E60FF11DF1
:10214000EE0FFF1FE450FF4F859194910895880F83
:10215000991FFC01E458FC4F859194910895CF9309
:10216000DF930E94D011EC01811520E5920708F061
:102170003FC0811540E4940708F0D2C0883E910525
:1021800000F5803E910508F002C1883A910570F48F
:10219000853A910508F0A6C08130910509F49FC0E9
:1021A00008F4F2C0049708F0F2C0EEC08F3B91052E
:1021B00008F4A1C0803C910508F4E6C0805C910958
:1021C000A5C0811550E2950760F4C11581E0D807DC
:1021D00008F0DDC0CD3ED10508F4D6C0CE01906533
:1021E000D7C0811520E3920708F093C09F708EC07E
:1021F000811545E5940708F046C0811554E595071B
:1022000008F0A6C0C11582E5D80718F5C11521E56B
:10221000D20708F088C0CE01F4E096958795FA952C
:10222000E1F7282F23703C2F337081E090E002C04B
:10223000880F991F3A95E2F79C68922B2C2F2F70EC
:102240002695269540E2249F90011124822B932B02
:102250009FC09E01237033279C2F96959695C1159C
:10226000D34508F065C041E050E002C0440F551F5F
:102270002A95E2F780E2989F90011124CA01822BEF
:10228000932B9C6885C0811559E5950798F4C11575
:1022900088E5D80708F061C0C11526E5D20708F027
:1022A00073C08C2F0E9464128F7190E0982F882742
:1022B00090626EC081154AE5940708F453C09056A9
:1022C0008115904208F060C08D2F8F710E946412BA
:1022D0009E01332730628F71A901582B53C081E0D2
:1022E00090E056C0855AC82FD0E0C957DE4F88818C
:1022F00090E090644DC0885AC82FD0E0CC0FDD1F0D
:10230000C75ADE4F88819981946442C00E94A71009
:102310003FC09927D3FF02C0986C3AC0906C38C078
:102320009F70906A35C09C2F8827816F906A30C05B
:1023300041E050E002C0440F551F2A95E2F780E2C9
:10234000989F90011124CA01822B932B9A6820C078
:10235000982F8827846F906A1BC09C2F8827806FD6
:10236000906A16C08F700E9464129E0194E03695A8
:1023700027959A95E1F72F7030E0322F22273069A8
:10238000A901482BCA0104C080E090E001C0CE0141
:10239000DF91CF9108950E9492100E94AF1008958E
:1023A0008238910569F1B0F48133910509F46DC06B
:1023B00048F48932910509F463C08A32910509F421
:1023C00069C008958533910509F455C08933910595
:1023D000B9F00895833E910569F138F4803E910586
:1023E000B1F0823E910509F10895863E9105A9F16B
:1023F000873E9105B9F1843E910509F064C023C080
:102400002091C00220FD4FC021FD4DC00895809154
:10241000C00280FD44C08091C10280FF44C0809111
:10242000C00284FD42C083EE4DC08091C00282FF95
:1024300038C0F5CF8091C00282FD33C08091C102C7
:1024400080FD31C0ECCF8091C10281FF32C080910C
:10245000C00284FD2AC087EE35C08091C00283FF90
:1024600026C0F5CF8091C00283FD21C08091C102BA
:1024700081FD1FC0ECCF8091C00285FD1CC01DC036
:102480008091C00285FD19C016C08091C00286FDF2
:1024900016C017C08091C00286FD13C010C089E32A
:1024A00011C082EE0FC080EE0DC080E00BC086EE42
:1024B00009C084EE07C089E205C085E303C08AE253
:1024C00001C081E390E008959091C00292FF0DC099
:1024D000282F2871283019F4877F846006C0282FA0
:1024E0002471243011F48B7F886093FF0DC0282F56
:1024F0002871283119F4877E846106C0282F247141
:10250000243111F48B7E88612091C10220FF0DC01F
:10251000382F3871383019F4877F816006C0382F22
:102520003171313011F48E7F886021FF0DC0282F6A
:102530002871283119F4877E816106C0282F217106
:10254000213111F48E7E886194FD877E089580E0AC
:1025500008950C94DC0E0E94C2138FE39CE901974E
:10256000F1F700C000000E94C21380E00E94E51253
:1025700080FF04C00E94A9120C94102408950C94AA
:10258000AB120E94E20E811102C00E948A0F0E94CB
:10259000ED0E809371020E94F50E9093C10280931C
:1025A000C0020E94BF120E94F10E682F70E080E00E
:1025B00090E00E949A086091F9017091FA0180916F
:1025C000FB019091FC010C94D208E82FF0E0EE0F93
:1025D000FF1FE453FD4F808191810895089580EAA3
:1025E0008A95F1F7089500C008950C94EF120895AC
:1025F0000C94F7120C94F8120C94F7120C94FC1231
:10260000F894E82FE295EF70F0E031A1282F2F70B9
:1026100081E090E001C0880F2A95EAF7982F909505
:10262000932391A392A1892B82A3789408950F9369
:102630001F93CF93DF93CAE9D1E089918F3F11F0C7
:102640000E94001381E0CF39D807B9F7CAE8D1E07A
:102650000AE911E089918F3F11F00E9400130C17D5
:102660001D07C1F7DF91CF911F910F910895AF9290
:10267000BF92CF92DF92EF92FF920F931F93CF936F
:10268000DF938C01C62FD0E0CE0186569E4F6C01A1
:10269000DC019C919F3F09F457C0B62EF894E92FB6
:1026A000E295EF70F0E081A19F7021E030E001C081
:1026B000220F9A95EAF7822B81A382A120952823E5
:1026C00022A378940E94F312EAE8F1E020E030E0DF
:1026D000E12CF12C41E050E081918F3FC1F0A82F17
:1026E000A295AF70B0E090966C9170E08F70DB01B6
:1026F00002C0B595A7958A95E2F7A0FD08C0CA016A
:10270000022E02C0880F991F0A94E2F702C080E0EF
:1027100090E0E82AF92A2F5F3F4F20313105E1F69A
:10272000F60180818F3F11F00E94001361E0E114F7
:10273000F10409F460E08B2D0E94F512CC0FDD1F2F
:10274000C00FD11FF982E882DF91CF911F910F91C5
:10275000FF90EF90DF90CF90BF90AF9008950E94D0
:102760001713E2ECF2E0ACECB2E0119211921D9280
:102770001D9282E0EC3CF807C1F785E00E940D1441
:102780000C941A04FF920F931F93CF93DF93CDB74E
:10279000DEB72A970FB6F894DEBF0FBECDBF8E010D
:1027A0000F5F1F4F8AE0F80111928A95E9F7F12C2B
:1027B0006F2DC8010E943713F394F5E0FF12F8CF94
:1027C0004AE050E0B80182EC92E00E949D2BFF2489
:1027D000F394009709F4F12C892B41F08AE0F80179
:1027E000A2ECB2E001900D928A95E1F72F2D45E021
:1027F0006CEC72E082EC92E00E940E140E942204C3
:102800008F2D2A960FB6F894DEBF0FBECDBFDF9195
:10281000CF911F910F91FF9008950895FF920F930C
:102820001F93CF93DF93F82E092F162FD72FC42F86
:10283000222349F081E0809374020E94C323909385
:10284000730280937202809174028823D9F0809180
:102850007202909173020E94DB23059798F0EF2D8E
:10286000F02FA12FBD2F80E090E04C2F50E0841777
:10287000950734F4219131912D933D930196F7CF33
:1028800010927402DF91CF911F910F91FF900895E4
:102890000E9430230E94AA250E94C3250E94D525AC
:1028A0000E94C60FFBCF80917B0280FF0BC060911E
:1028B000070185E0689FB0011124759567957595AE
:1028C00067952BC081FF09C06091070185E0689F73
:1028D000B00111247595679520C082FF07C06091F3
:1028E000070185E0689FB001112417C090917A021A
:1028F0009923D1F060910601961788F7209107017E
:1029000085E0289F90011124929FA001939F500D74
:10291000112470E0CA010E94232B6038710540F435
:102920006115710519F406C065E070E0862F089501
:102930008FE7089581E0089580917B0280FF08C0B1
:102940006091030170E0759567957595679521C055
:1029500081FF06C06091030170E07595679519C00D
:1029600082FF04C06091030170E010C09091790271
:10297000992399F0609102019617A0F780910301C5
:10298000899FC001112470E00E94232B60387105DB
:1029900040F46115710519F406C061E070E0862FFE
:1029A00008958FE7089581E008958D3E21F40E94F7
:1029B0005314819504C08E3E29F40E9453148093D1
:1029C0007F0208958F3E21F40E945314819504C024
:1029D000803F29F40E94531480937E020895893F1A
:1029E00019F40E949C1405C08A3F31F40E949C1483
:1029F00081958093800208958B3F21F40E949C145E
:102A0000819504C08C3F29F40E949C14809381021C
:102A100008959FE0980F983078F421E030E0A90104
:102A200002C0440F551F9A95E2F7CA0190917D02AA
:102A3000892B80937D0208958D3F21F480917B0244
:102A400081600BC08E3F21F480917B02826005C0C3
:102A50008F3F29F480917B02846080937B020895EC
:102A60008D3E39F490917F0297FF35C010927F021E
:102A700059C08E3E29F490917F021916BCF32BC0E9
:102A800090917E028F3E29F497FF25C010927E021E
:102A900049C0803F19F41916CCF31DC090918002F3
:102AA000893F29F41916BCF4109280023BC08A3F7A
:102AB00019F497FF10C0F8CF8B3F39F49091810241
:102AC00097FF09C0109281022DC08C3F21F4909194
:102AD00081021916BCF39FE0980F983080F421E032
:102AE00030E0A90102C0440F551F9A95E2F7CA01D0
:102AF000809590917D02892380937D0213C08D3F44
:102B000021F480917B028E7F0BC08E3F21F4809157
:102B10007B028D7F05C08F3F29F480917B028B7FE4
:102B200080937B0280917E02811106C080917F029A
:102B3000811102C010927A0280918002811106C038
:102B400080918102811102C01092790208950E9441
:102B5000C32320917E02211104C020917F022223F1
:102B600021F09093780280937702209180022111C6
:102B700004C020918102222321F090937602809359
:102B800075028CE792E00C943822EF92FF920F933B
:102B90001F93CF93DF9300D000D000D0CDB7DEB726
:102BA00086E0ECE7F2E0DE01119601900D928A9545
:102BB000E1F7E0907E02F0907F0200918002109198
:102BC000810210927E0210927F0210928002109277
:102BD0008102E11003C0FF2009F45DC080917702FB
:102BE000909178020E94DB23AC0190917A029923A4
:102BF00039F02091080130E02417350758F04BC018
:102C0000209109018AE0289F90011124241735079B
:102C100018F041C09F3F19F09F5F90937A02EE2019
:102C200061F00E9453141E1414F09FEF01C091E054
:102C3000989F902D112490937E02FF2061F00E94B6
:102C400053141F1414F09FEF01C091E0989F902D32
:102C5000112490937F0230917E023323E1F0209182
:102C60007F022223C1F045EB3403C00111249923D4
:102C700019F090937E0203C081E080937E0235EBD1
:102C80002303C0011124992319F090937F0203C0FC
:102C900081E080937F02011103C0112309F45DC01C
:102CA00080917502909176020E94DB23AC01909195
:102CB0007902992339F02091040130E02417350777
:102CC00058F04BC0209105018AE0289F9001112403
:102CD0002417350718F041C09F3F19F09F5F90936C
:102CE0007902002361F00E949C14101614F09FEFEB
:102CF00001C091E0989F902D1124909380021123A0
:102D000061F00E949C14111614F09FEF01C091E035
:102D1000989F902D1124909381023091800233234B
:102D2000E1F0209181022223C1F045EB3403C00180
:102D30001124992319F09093800203C081E08093BD
:102D4000800235EB2303C0011124992319F09093DD
:102D5000810203C081E08093810280917E02811113
:102D60000BC080917F02811107C080918002811188
:102D700003C08091810281110E94A715EB82FC8221
:102D80000D831E8386E0FE013196ACE7B2E0019030
:102D90000D928A95E1F726960FB6F894DEBF0FBE26
:102DA000CDBFDF91CF911F910F91FF90EF900895CC
:102DB000ECE7F2E086E0DF011D928A95E9F71092D8
:102DC0007A021092790210927B020895EF92FF929C
:102DD0000F931F93CF93DF938B01682F11110AC0BC
:102DE000442329F0E82FF0E0ED56FB4F6491762F55
:102DF000862F75C0212F30E0E82FF0E0442321F02A
:102E0000ED56FB4FE491F0E046E0049FC001112431
:102E1000CFEFD0E0BE010E940F2B4BEA4603C0016A
:102E2000479F900D1124800F911D800F911D982FA9
:102E3000990F890FAE01421B530B4E9FD0014F9F3C
:102E4000B00D5E9FB00D11249B2F189FA00111247F
:102E5000452F55278E01041B150B0E9FA0010F9FB8
:102E6000500D1E9F500D11247E01E81AF108E29EBC
:102E70008001E39E100DF29E100D1124212F3327A7
:102E8000C21BD30BCE9F9001CF9F300DDE9F300D24
:102E9000112462307105A9F048F46115710569F0DB
:102EA00061307105C9F48B2F752F0DC06430710529
:102EB00081F058F06630710579F47E2F8B2F932FB7
:102EC0000DC0832F7B2F9E2F09C08E2F7B2F952F18
:102ED00005C08E2F732F02C07E2F852F692FDF91A3
:102EE000CF911F910F91FF90EF90089541E00E94C4
:102EF000E616089508950E9476170895CF93DF93FC
:102F0000762FE901682F842F0E947B1779836883CD
:102F10008A83DF91CF910895413F08F040EF0C94F0
:102F20007E178091D602282F269530E02115310595
:102F300019F48170826005C02532310524F081705A
:102F400088648093D6028091D902813F18F080EF87
:102F50008093D902089588E090E00C94B22BCF9230
:102F6000DF92EF92FF926B017C010E949117B701F3
:102F7000A60188E090E0FF90EF90DF90CF900C9456
:102F8000D02BE6EDF2E083E0808311828FEF828325
:102F900080EF8383148260817181828193810C949C
:102FA000AF178091D60280FF02C08695089580E019
:102FB00008959091DA02933018F49F5F9093DA02AB
:102FC000882351F06091D6027091D7028091D80287
:102FD0009091D9020C94AF17089581E00C94D91701
:102FE0009091DA02992319F091509093DA02882394
:102FF00051F06091D6027091D7028091D8029091E1
:10300000D9020C94AF17089581E00C94F01770E08A
:103010000C94BA1F60910E018091D60280FF0AC005
:1030200080910D0123E0829FC001112485529D4FA4
:103030000C94071880910F0190911001891780F767
:10304000E82FF0E09F01220F331FE20FF31FE5523C
:10305000FD4F1182108212828F5FF0CF9091D602C5
:1030600090FF16C090910F0120911001921770F4FB
:10307000E92FF0E0DF01AA0FBB1FEA0FFB1FE552AB
:10308000FD4F8183608342839F5FF0CF0C940A18C9
:103090000895CF93DF9300D01F92CDB7DEB7909104
:1030A000D60290FF0AC09E012F5F3F4F0E948C17EF
:1030B0004B8169818A810E942E180F900F900F908A
:1030C000DF91CF910895CF93DF93EC01EC81F0E095
:1030D000E257FC4F4491E6EDF2E0628181810E946B
:1030E00049188C818F5F8C83DF91CF910895CF93A6
:1030F000DF93EC01E6EDF2E0438162818C810E9476
:1031000049188C818F5F8C83DF91CF9108950F9345
:103110001F93CF93DF9300D01F92CDB7DEB78C0102
:103120008091820281110AC09E012F5F3F4F40EFC4
:103130006FEF0E948C178A8180938202F80184814C
:10314000813051F028F0823061F4409182020AC04F
:103150008091820240E007C06091820240E080E0FE
:1031600003C040E080E060E00E942E18F8018481F6
:1031700090E0019663E070E00E94232B84830F901F
:103180000F900F90DF91CF911F910F910895AF9203
:10319000BF92CF92DF92EF92FF920F931F93CF9344
:1031A000DF9300D01F92CDB7DEB7182FF62E042F75
:1031B000E22E9091D60290FF6DC0E92FE695AE2FDA
:1031C000B0E0A156BE4F8C9180938E029E7F9230CC
:1031D00061F49E012F5F3F4F812F0E948C174B811E
:1031E00069818A810E942E1843C0823019F40091AF
:1031F000D9023EC0863019F41091D70239C0893007
:10320000D9F38931A9F5E9518E2F8170D82EE69531
:10321000F0E0E257FB4FA590B490C12CBB24609125
:103220001101C61618F52C2D30E0A29EC001A39EF8
:10323000900DB29E900D112470E00E940F2B812FF3
:10324000D11002C0860F01C0861B90910F01290F7B
:10325000311DA901440F551F240F351F25523D4F25
:10326000402F6F2D0E948C17C394D9CF0E940A184B
:103270001093D702F092D8020093D902EE2051F0B9
:103280006091D6027091D7028091D8029091D902B4
:103290000E94AF170F900F900F90DF91CF911F9169
:1032A0000F91FF90EF90DF90CF90BF90AF90089577
:1032B000E6EDF2E09181282F4381628188E0890F59
:1032C0000C94C71881E00C945819E6EDF2E0918156
:1032D000282F4381628188EF890F0C94C71881E001
:1032E0000C946519E6EDF2E0628128E0620F08F4C3
:1032F0006FEF282F438181810C94C71881E00C94D3
:103300007219E6EDF2E0628128E0621B08F460E0E9
:10331000282F438181810C94C71881E00C94811976
:10332000E6EDF2E0438128E0420F08F44FEF282F4A
:10333000628181810C94C71881E00C949019E6EDAC
:10334000F2E0438128E0421B08F440E0282F62812C
:1033500081810C94C71881E00C949F1920E00C9493
:10336000C718FF920F931F93CF93DF93EC01F12CBB
:103370000FEF10E060911101F616F0F480910F014B
:103380002F2D30E0280F311DC901880F991F280FFC
:10339000391F25523D4F70E0C8010E94232B962F04
:1033A0008C814091D9026091D802F99E800D112440
:1033B0000E948C17F394DECF0E940A189A818C81A8
:1033C00090FF02C08F5F01C081508C83DF91CF914D
:1033D0001F910F91FF900895BF92CF92DF92EF92CD
:1033E000FF920F931F93CF93DF93FC01828180FFA5
:1033F00002C00FEF01C001E010E080911101181729
:1034000008F040C080910F01C12ED12CE601C80FF9
:10341000D11DCE01880F991FC80FD91FC552DD4F8E
:10342000198218821A8234E0E32EF12CB12C80919B
:1034300084028B0D813114F08F7005C087FF03C0AB
:1034400090911101890F082E000C990BC816D9060E
:1034500091F48091D9028E9DA0018F9D500D112471
:1034600055954795559547959E016091D802809155
:10347000D7020E948C17B00EF1E0EF1AF108B9F6EE
:103480001F5FBBCF0E940A1880918402013031F483
:10349000811102C080911101815007C090E0019616
:1034A0006091110170E00E94232B80938402DF91D0
:1034B000CF911F910F91FF90EF90DF90CF90BF9031
:1034C0000895CF9380910F0190911001891770F4A6
:1034D000E82FF0E09F01220F331FE20FF31FE552A8
:1034E000FD4F1182108212828F5FF0CFC0E0609199
:1034F0001101C617C0F5EC2FF0E070E0CF010E947B
:10350000232B20910F01820F20918302022E000CA9
:10351000330B90E0E217F307CCF020910C01022E60
:10352000000C330B2E173F078CF09C01220F331F2A
:10353000820F931F9C0125523D4F4091D90260910B
:10354000D8028091D7020E948C170BC0FC01EE0FAD
:10355000FF1F8E0F9F1FFC01E552FD4F118210824D
:103560001282CF5FC4CF0E940A1820910B01809174
:103570008302820F8093830290910C01920F9093AB
:103580000C0119165CF4082E000C990B40911101E6
:1035900050E041505109841795071CF02195209364
:1035A0000B01CF9108958F929F92AF92BF92CF92CD
:1035B000DF92EF92FF920F931F93CF93DF938C01D3
:1035C000FC014481C42FD0E09E01DE010E94672BE4
:1035D0009B01AC010E947D2B6B017C01E0E2F0E0DD
:1035E000EC1BFD0BA5E5B0E09B01AC010E947D2B1F
:1035F0004B015C019F01DF010E945F2B9B01AC012D
:103600000E94882B9B01AC012C0D3D1D4E1D5F1DA2
:10361000C501B4010E94372BC22FD22F2A3228F4C1
:10362000F3E02F9F900111240DC025E530E02C1B05
:103630003109C901880F991F280F391F37FF02C0B0
:103640002F5F3F4F35952795C22FC095F12C85E50B
:10365000E82EED1A80911101F816C8F4F1FC02C0B1
:103660008E2D01C08D2F90910F012F2D30E0290F4D
:10367000311DA901440F551F240F351F25523D4F01
:103680004C2F6091D8020E948C17F394E3CF0E94D4
:103690000A18F8018481811102C091E003C08032D0
:1036A00019F49FEF90930A0190910A01890FF80194
:1036B0008483DF91CF911F910F91FF90EF90DF9066
:1036C000CF90BF90AF909F908F9008950F931F93CE
:1036D000CF93DF93EC0100E010E080911101282FDF
:1036E00030E00217130724F590910F019801290F7C
:1036F000311DA901440F551F240F351F25523D4F81
:10370000869590E04C81081719071CF4442331F08A
:1037100002C0411103C04091D90201C040E0609154
:10372000D8028091D7020E948C170F5F1F4FD5CF10
:103730000E940A188C8190E00196817099278C83F1
:10374000DF91CF911F910F910895E6EDF2E0808116
:103750008E7F808360817181828193810E94AF1707
:1037600010928F022FEF80E792E02150804090402E
:10377000E1F700C000000C940A18E6EDF2E0808149
:103780008E7F808310928F022FEF80E792E021508E
:1037900080409040E1F700C000000C940A1810929D
:1037A0008F0280918C0281110AC081E080938C028B
:1037B0008091D602817080938B020C94BD1B08957A
:1037C0006091D602669570E04BE050E082E191E0B6
:1037D0000E94902B892B19F481E080938F020E9424
:1037E000C323909386028093850208959091D60218
:1037F00090FF35C09170811102C0926006C0853281
:1038000010F0986402C0880F982B9093D60266231C
:1038100051F06091D6027091D7028091D8029091B8
:10382000D9020E94AF176091D602669570E04BE016
:1038300050E082E191E00E94902B892B19F01092C8
:103840008F0202C00E94E01B81E0809388024091B9
:10385000D9026091D8028091D7020C94AE190895D4
:10386000682F9091D602969581E0890F853208F0F5
:1038700081E00C94F61B81E00C94301C682F909131
:10388000D60296958FEF890F09F484E20C94F61B0B
:1038900081E00C943E1C61E00C94F61BE6EDF2E036
:1038A00080818160808386950C944B1C8091D60228
:1038B00080FD0C94A51B0C944E1C60E00C94F61B30
:1038C00080918D0281112EC00E94E20E811104C0F0
:1038D0000E948A0F0E94C1170E94AB176093D60204
:1038E0007093D7028093D8029093D9026E7F61F4CF
:1038F0000E94C1170E94AB176093D6027093D70243
:103900008093D8029093D9020E94911710928F024F
:103910008091D60280FF03C086950E945D1C81E0E5
:1039200080938D020895E6EDF2E0808181608083CE
:1039300086950C945D1C10928C0280918B028111F3
:103940000E94931C0C94E01B0F931F93CF93DF9363
:1039500080918F02882309F485C080918E02E091C6
:10396000D602E695E81BE0938702823049F4F0E046
:10397000E657FC4FE491CE2FD0E003E618E149C0B2
:10398000863049F4F0E0E957FC4FE491CE2FD0E0C7
:1039900007E718E13EC0893051F4E695F0E0EC57B6
:1039A000FC4FE491CE2FD0E001EB19E132C08F3013
:1039B00051F4E695F0E0EF57FC4FE491CE2FD0E0C4
:1039C0000CEE19E126C0853149F4F0E0E258FC4FD5
:1039D000E491CE2FD0E001E61AE11BC0883181F0DE
:1039E000833239F4ECE7F3E0C591D49107E818E1AC
:1039F00010C0843251F4C4EFD1E006E61BE109C0E7
:103A0000C8E2D0E003ED1AE104C0C0EDD7E00AE758
:103A100017E180918802882361F0109288020E9449
:103A2000C323909386028093850210928A0210929B
:103A300089020E94C323E0918502F09186028E1BC9
:103A40009F0B8F3F9F4770F4EC0FFD1FF093860292
:103A5000E093850285E892E0F801DF91CF911F9114
:103A60000F910994DF91CF911F910F9108958823B1
:103A700011F0FA0101C0FB010994CF93DF93C82F25
:103A8000D62F0E94D1178C1740F00E94D1178D17A6
:103A900020F4DF91CF910C943B1C8C2FDF91CF91C0
:103AA0000C944B1C1F93CF93DF93FB0112811123C6
:103AB00009F4BCC0EC010E941D0E8272CD3CFCE5F5
:103AC000DF0709F497C008F043C0C73CECE5DE0708
:103AD00009F47CC0D8F4C43C9CE5D90709F46AC059
:103AE00038F4C33CDC4509F0A4C00E94561CA0C0B9
:103AF000C53C9CE5D90709F462C0C63CDC4509F029
:103B000098C04FE659E162E679E15DC0CA3CFCE548
:103B1000DF0709F465C070F4C83CECE5DE0709F482
:103B20005AC0C93CDC4509F084C04EE759E16DE854
:103B300079E149C0CB3C9CE5D90709F456C0CC3C9F
:103B4000DC4509F076C044E058E16DEE77E13BC01A
:103B5000C23DFCE5DF0709F45AC098F4CF3C9CE570
:103B6000D90709F44EC008F44AC0C03DFCE5DF07A0
:103B700009F44AC0C13DDC4509F05BC06EE089E054
:103B80004EC0C53D9CE5D90709F447C050F4C33D7C
:103B9000FCE5DF07F9F1C43DDC4509F04AC088E1E6
:103BA00042C0C63D9CE5D907E9F1CE35DD4509F4B3
:103BB0003FC03FC048E45CE16BE37CE104C04BE301
:103BC0005CE168E47CE10E94371D32C042E659E1C5
:103BD0006FE679E1F8CF4DE859E16EE779E1F3CF8F
:103BE0004BEA59E16CE979E1EECF4CE959E16BEA36
:103BF00079E1E9CF4DEE57E164E078E1E4CF81E08F
:103C000012C065E082E00BC068E086E008C064E1B5
:103C10008FE005C067E185E102C062E289E10E94B0
:103C20003D1D06C083E20E944B1C02C011E001C092
:103C300010E0812FDF91CF911F91089586E090E0F1
:103C40000C94AA2B682F86E090E00C94BE2B8091F8
:103C50000B038470896180930B030C94221E0E94D5
:103C6000E20E811104C00E948A0F0E94271E0E944A
:103C70001E1E80930B03282F26952695269530E04F
:103C80002430310524F08770886180930B03809184
:103C90000B0380FF04C086958695869501C080E061
:103CA0000C94401F20910B03822F86958695869554
:103CB000482F50E04330510554F48F5F982F990FEF
:103CC000990F990F822F8770892B80930B03809116
:103CD0000B03816080930B030E94221E80910B03D3
:103CE0008695869586950C94401F80910B03982F9E
:103CF000969596959695A1F0915E990F990F990FCB
:103D00008770892B80930B03887F91E009F490E002
:103D100080910B0390FB80F980930B030E94221E7D
:103D200080910B038695869586950C94401F809113
:103D30000B0380FD13C0816080930B03813019F465
:103D400089E080930B0380910B030E94221E8091D7
:103D50000B038695869586950C94401F0895809157
:103D60000B0380FF08C08E7F80930B030E94221EEE
:103D700080E00C94401F089580910B0380FD0C940B
:103D8000AF1E0C94971E90910B03892F86958695F4
:103D900086958F5F8F719770843038F4880F880F05
:103DA000880F892B80930B0302C090930B038091A3
:103DB0000B03887F91E009F490E080910B0390FB66
:103DC00080F980930B030E94221E80910B0386953D
:103DD000869586950C94401F843008F083E090917E
:103DE0000B039770282F220F220F220F922B9093F4
:103DF0000B03987F21E009F420E090910B0320FB56
:103E000090F990930B030C94401F0E94EC1E80913C
:103E10000B030C94221E9C01FB018281882349F133
:103E20002E3BFCE53F07C9F040F42C3BECE53E0798
:103E300069F02D3B3C4561F00895203C9CE5390735
:103E400091F070F0213C3C4589F0089583E001C079
:103E500080E00E94051F80E008950E94751EFBCF40
:103E60000E94521EF8CF0E94BC1EF5CF0E94C31EB6
:103E7000F2CF81E00895259A2D9808952D98089500
:103E8000CF92DF92EF92FF92CF93C82F843050F4FD
:103E9000811109C0809180008F77809380000E94FB
:103EA0003E1F06C0C3E08091800080688093800040
:103EB0002C2F30E0AFEFBFEF0E94672B23E030E004
:103EC00040E050E00E94372BB42FA32F922F882779
:103ED000492F5A2F6B2F7727CA014C3724E15207FD
:103EE00028F469E070E00E940F2B29C0DB01CA01B1
:103EF0008A50974DAF4FBF4F6627782F892F9A2F43
:103F000025EF38E241E050E00E94372B69017A0149
:103F1000CA01B9010E94FF2A9B01AC01C701B60189
:103F20000E94FF2ABB27A92F982F872F009721E0F7
:103F3000A207B10511F0BC0102C06FEF7FEF7093D3
:103F4000890060938800CF91FF90EF90DF90CF9031
:103F5000089508950E943B1F82E88093800089E1C4
:103F6000809381008FEF9FEF90938700809386006E
:103F70000C942F1E6A9A2EB12B7F3EB134604FB73E
:103F8000F894FC01CB01880F991F680F791F6E0F01
:103F90007F1FE617F70789F0819198E03EB900008E
:103FA00000C087FF2EB9880F000000C000C000C00D
:103FB0002EB900C09A9591F7ECCF4FBF8FE594E0F2
:103FC0000197F1F700C0000008950F931F93CF935E
:103FD000DF93C42FD22FFC0182818823C9F0409344
:103FE00092020E94C323909391028093900280E2F8
:103FF0008C0F883008F057C0C77081E001C0880F6F
:10400000CA95EAF7DF91CF911F910F910C94AC05FF
:1040100080919202481330C0809190029091910259
:104020000E94DB23883C910538F510E21D0FCD1767
:10403000B9F080E28C0F883040F4C77081E001C095
:10404000880FCA95EAF70E94B305183028F581E079
:104050009D2F977001C0880F9A95EAF70E94AC05D2
:10406000802F0E94A3051830F0F4D77081E001C0C2
:10407000880FDA95EAF70AC080E28C0F883098F44E
:10408000C77081E001C0880FCA95EAF7DF91CF9130
:104090001F910F910C94B305802FDF91CF911F9149
:1040A0000F910C94A305DF91CF911F910F9108956B
:1040B0000F939C01CB01243F4CE5340731F188F488
:1040C000293DFCE53F07D9F02A3D4CE5340779F15D
:1040D000283D3C45A9F506E221EE41EE68ED7CE580
:1040E0002BC0263FFCE53F07E1F0A8F0273F3C4509
:1040F00039F507E225EE46EE67EF7CE51DC007E2E5
:1041000025EE45EE69ED7CE517C006E221EE40EEB6
:1041100064EF7CE511C007E225EE44EE65EF7CE537
:104120000BC006E221EE42EE66EF7CE505C008E238
:1041300021E045EE6AED7CE50E94E51F80E008C0C5
:10414000FC018281882319F01092920201C081E063
:104150000F910895CF93DF93EC01FB0182818823B7
:1041600009F426C1C430FDE5DF0760F4CB3F9CE5D0
:10417000D90768F49E0122503C452431310508F0EE
:1041800018C105C0C236EDE5DE0709F012C10E9474
:10419000F50E9093C1028093C002C031FCE5DF07A9
:1041A00009F4CAC008F041C0C8309CE5D90709F439
:1041B000A4C0F0F4C430FCE5DF0709F48CC068F457
:1041C000C2309CE5D90709F482C0C330DC4509F050
:1041D000E5C08091C0028260DFC0C630FCE5DF0729
:1041E00009F483C008F085C08091C0028860D4C003
:1041F000CC309CE5D90709F490C068F4CA30FCE5DE
:10420000DF0709F47EC008F084C00E94390880915D
:10421000C0028068C1C0CE309CE5D90709F481C0D6
:1042200008F086C08091C00294C0CD3FFCE5DF0756
:1042300009F47BC038F5C4319CE5D90709F49AC06C
:1042400058F4C231FCE5DF0709F47AC008F07EC0FB
:104250008091C0028F7BA0C0CB3F9CE5D907F1F1D4
:1042600008F03FC0C531DC4509F098C08091C0021C
:1042700082FB222720F991E0922790FB82F990FBA4
:1042800083F98AC0C1308DE5D80709F467C050F4BE
:104290008091C102CF3FECE5DE07C1F108F05BC0C1
:1042A0008D7F65C0C3308DE5D80709F471C008F46F
:1042B0006DC0C236DD4509F071C08091C00284FB3B
:1042C000222720F991E0922790FB84F965C0809124
:1042D000C002816061C08091C00216C08091C1029D
:1042E00016C08091C102826042C08091C00280618C
:1042F00053C08091C00280624FC08091C002806430
:104300004BC08091C0028860846046C0826081603A
:104310002EC08091C0028E7F3FC08091C0028D7FF1
:104320003BC08091C002877F37C08091C10214C01A
:104330008091C0028F7E30C08091C0028F7D2CC0E2
:104340000E9439088091C0028F7726C08091C002F8
:10435000877F8B7F21C08D7F8E7F09C08091C102B6
:10436000982F909591708E7F892B90FB81F9809387
:10437000C10214C00E9439088091C00287FB222725
:1043800020F991E0922790FB87F906C081E001C0F7
:1043900080E00E948C0F02C08093C0028091C00216
:1043A0009091C1020E94060F0E94390880E001C06E
:1043B00081E0DF91CF910895CF93DF9386319C45C3
:1043C00041F5EB010E941D0E982F8A81209100017A
:1043D00030910101882379F09A7A81E009F480E034
:1043E00080939302911102C069E201C065E3C901A3
:1043F0000E9408230AC080919302811102C069E2E1
:1044000001C065E3C9010E9413230E946F0E80E082
:1044100001C081E0DF91CF9108959093990280933C
:1044200098020895E0919802F0919902309721F056
:104430000190F081E02D099480E00895E0919802C8
:10444000F0919902309799F020912701222359F099
:104450002091C00227FF07C0DC012C9111962C93FC
:10446000119725E02C930280F381E02D09940895A3
:10447000E0919802F0919902309739F022E0DC0146
:104480002C930480F581E02D0994089520919602E3
:10449000309197022817390771F090939702809313
:1044A0009602E0919802F0919902309721F00680EF
:1044B000F781E02D0994089520919402309195029E
:1044C0002817390771F09093950280939402E09138
:1044D0009802F0919902309721F00084F185E02D47
:1044E00009940895FC01329680912701882331F0C8
:1044F0008091C00287FF02C09EE101C096E080E08B
:10450000915028F021912223D9F38F5FF9CF08959C
:10451000662351F1209127012223E9F02091C00266
:1045200027FF19C0462F4695469546954E31E0F433
:10453000677021E030E002C0220F331F6A95E2F776
:10454000FC01E40FF11D828190E02823392381E0F2
:10455000232B69F409C0FC01329608962191621759
:1045600029F0E817F907D1F780E0089581E0089570
:104570009C01FC0132969FEF80E04191461789F043
:104580009F3F19F4411101C0982F8F5F8630A9F722
:104590009F3F39F0F901E90FF11D97FDFA9562830C
:1045A000089508959C012A5F3F4FFC014281461304
:1045B00001C01282019682179307B9F70895262F3A
:1045C0002695269526952E3168F4FC01E20FF11D03
:1045D000677021E030E001C0220F6A95EAF782811E
:1045E000282B22830895262F2695269526952E3151
:1045F00070F4FC01E20FF11D677021E030E001C0B2
:10460000220F6A95EAF72095828128232283089554
:1046100020912701222329F02091C00227FD0C942C
:10462000DF220C94B82220912701222329F0209127
:10463000C00227FD0C94F3220C94D2222091270172
:10464000FC013296222331F08091C00287FF02C024
:104650008EE101C086E0DF011D928A95E9F7089599
:10466000089508950C9431230C943123CF930E9424
:1046700034230E94C2130E943223C0E08C2F0E9478
:10468000E512892B29F4CF5FC530C1F780E001C066
:1046900081E0CF9108950C9431230C944B238091A9
:1046A0001403843009F42EC00E944D2380E00E9440
:1046B000401F80E00E94A9040E94CF1B10929A0222
:1046C00020E488E190E00FB6F894A895809360000C
:1046D0000FBE2093600083B7817F846083BF83B760
:1046E000816083BF7894889583B78E7F83BF0FB630
:1046F000F894A89580916000886180936000109282
:1047000060000FBE08950C9431230E9439080E9466
:104710002F1E0E9412220E94A9040E949B1C0C942E
:1047200083231F920F920FB60F9211248F939F93A2
:10473000AF93BF9380919A02811113C080910C03B3
:1047400090910D03A0910E03B0910F034196A11D0E
:10475000B11D80930C0390930D03A0930E03B093AF
:104760000F03BF91AF919F918F910F900FBE0F904C
:104770001F90189582E084BD93E095BD9AEF97BD98
:1047800080936E0008952FB7F89480910C03909158
:104790000D03A0910E03B0910F032FBF08952FB703
:1047A000F89460910C0370910D0380910E03909129
:1047B0000F032FBF08959C014FB7F89480910C030D
:1047C00090910D03A0910E03B0910F034FBF821B78
:1047D000930B089578941F920F920FB60F921124A5
:1047E0008F939F93AF93BF9380910C0390910D0390
:1047F000A0910E03B0910F030196A11DB11D8093EE
:104800000C0390930D03A0930E03B0930F03BF917D
:10481000AF919F918F910F900FBE0F901F901895A1
:1048200081E08093E00080E28093D8001092C9007C
:104830008FE19EE40197F1F700C0000087E090EB64
:10484000DC0180931D0390931E03A0931F03B0937C
:1048500020039CE088E10FB6F894A895809360004F
:104860000FBE90936000FFCF9093C5018093C40169
:1048700008958091BE02089590911403943031F50B
:1048800080939B0270939D0260939C0282E08093D0
:10489000E9008FEF9091E800815095FD06C095EDFD
:1048A0009A95F1F700008111F5CF8091E80085FF1E
:1048B0000DC040E050E063E070E08BE992E00E94C0
:1048C00061268091E8008E778093E8000895BC010E
:1048D00084E00C943C24BC0183E00C943C2422E052
:1048E0002093E9002FEF3091E800215035FD06C0FC
:1048F00035ED3A95F1F700002111F5CF2091E80050
:1049000025FF0BC040E050E066E070E00E946126A9
:104910008091E8008E778093E8000895CF93DF932D
:1049200020912701222339F02091C00227FF03C0E4
:1049300060E222E002C068E021E02093E9002FEF6E
:104940003091E800215035FD06C035ED3A95F1F77C
:1049500000002111F5CF2091E80025FF1DC0EC01DA
:1049600080912701811105C040E050E068E070E0CF
:1049700003C070E040E050E0CE010E9461268091CB
:10498000E8008E778093E80080E2FE01AEE9B2E0B5
:1049900001900D928A95E1F7DF91CF910895809172
:1049A0001303811109C00E94F2270E944F288091B1
:1049B000E20084608093E20008951092130308954A
:1049C00008950895089542E061EC81E00E946B270C
:1049D00042E261EC82E00C946B27809116038330F5
:1049E00009F460C030F4813071F0823009F499C06C
:1049F00008958A3009F485C08B3009F46BC0893082
:104A000009F0A7C020C080911503813A09F0A1C028
:104A10008091E800877F8093E8008091190390914E
:104A20001A03892B21F460E28EE992E003C060E072
:104A300080E090E070E00E94AC268091E8008B77E7
:104A40008093E800089580911503813209F081C0B8
:104A50008091190390911A03029708F07AC080910F
:104A6000E800877F8093E8008091E80082FD05C020
:104A7000809114038111F8CF6CC02091F3008091D4
:104A8000F20090E0922B029729F48091F1008B7F45
:104A9000813021F48091F1008093BE028091E80082
:104AA0008B7753C080911503813A09F052C08091F1
:104AB000190390911A03892B09F04BC08091E800EB
:104AC000877F8093E8008091E80080FFFCCF809191
:104AD000270136C0809115038132D9F580911903E1
:104AE00090911A03892BA9F58091E800877F809324
:104AF000E8000E94A02780911703809327010C945F
:104B0000390880911503813221F58091E800877F73
:104B10008093E8000E94A027809118038093BF0231
:104B2000089580911503813AA1F48091E800877F70
:104B30008093E8008091E80080FFFCCF8091BF0265
:104B40008093F1008091E8008E778093E8000C94C8
:104B5000A027089584B7877F84BF0FB6F894A895DF
:104B600080916000886180936000109260000FBEA9
:104B700090E080E80FB6F894809361009093610014
:104B80000FBE0C94BC0F0E94F2270E944F28E2EE49
:104B9000F0E080818460808378940E94E42A0E94FF
:104BA000CA0F8DE191E00C940D22809114038530A1
:104BB000A9F480911403853079F40E944F238091E9
:104BC00012038823B1F30E943623882391F30E94B5
:104BD0004B260E943908EDCF0E9485230C94D40FF8
:104BE0000C94F225292F332723303105C9F060F4C6
:104BF0002130310581F02230310509F044C08BE3CA
:104C000090E02BEB35E043C021323105E1F0223258
:104C1000310549F138C082E190E026EF35E037C038
:104C200099278130910549F028F0029761F5E3E971
:104C3000F5E005C0E7EBF5E002C0E5EAF5E08491B8
:104C400090E09F0124C06115710541F0613071054C
:104C5000D1F489E090E026EE35E019C089E090E0DB
:104C60002DEC35E014C06115710541F0613071051E
:104C700051F486EB90E028E036E009C080E490E053
:104C80002EEB36E004C080E090E020E030E0FA0156
:104C900031832083089580E189BD82E189BD09B413
:104CA00000FEFDCF8091D8008F7D8093D800809149
:104CB000E00082608093E0008091E00081FDFCCF05
:104CC0000895CF92DF92EF92FF920F931F93CF93AD
:104CD000DF93EC018B017A010E94BF27811133C061
:104CE000E114F10439F0F70180819181081B190B5F
:104CF000C80FD91FC12CD12C0115110519F18091B4
:104D0000E80085FD16C08091E8008E778093E8006A
:104D1000E114F10449F0F70180819181C80ED91E98
:104D2000D182C08285E00FC00E94BF27882321F373
:104D30000AC089918093F10001501109FFEFCF1A49
:104D4000DF0ADACF80E0DF91CF911F910F91FF90C2
:104D5000EF90DF90CF90089520911B0330911C03BA
:104D60002617370748F06115710539F42091E800DE
:104D70002E772093E80001C0B901FC0120E0611505
:104D8000710579F1809114038823F1F18530F1F1F7
:104D90008091E80083FD3CC08091E80082FD2EC038
:104DA0008091E80080FFEBCF2091F3008091F2002A
:104DB00090E0922B6115710551F08830910538F41F
:104DC00021912093F100615071090196F3CF21E008
:104DD000089709F020E08091E8008E778093E80042
:104DE000CECF2111CFCF0AC080911403882361F068
:104DF000853061F08091E80083FD0AC08091E80071
:104E000082FFF2CF80E0089582E0089583E0089564
:104E100081E0089520911B0330911C03261737076A
:104E200048F06115710539F42091E8002E77209340
:104E3000E80001C0B901FC0120E06115710591F1A4
:104E400080911403882309F440C0853009F43FC0E1
:104E50008091E80083FD3DC08091E80082FD2FC075
:104E60008091E80080FFE9CF2091F3008091F2006B
:104E700090E0922B6115710559F08830910540F44E
:104E800024912093F1003196615071090196F2CF7F
:104E900021E0089709F020E08091E8008E77809368
:104EA000E800CBCF2111CCCF0AC080911403882316
:104EB00061F0853061F08091E80083FD0AC0809147
:104EC000E80082FFF2CF80E0089582E0089583E059
:104ED000089581E00895982F973068F59093E90040
:104EE000981739F07091EC002091ED005091F0008E
:104EF00003C0242F762F50E021FD02C09F5FECCF2E
:104F00003091EB003E7F3093EB003091ED003D7F20
:104F10003093ED003091EB0031603093EB007093F3
:104F2000EC002093ED005093F0002091EE0027FD5F
:104F3000E5CF80E008958F708093E90081E00895C7
:104F40008091150387FF11C08091E80082FD05C0A4
:104F5000809114038111F8CF11C08091E8008B7704
:104F60000BC080911403882349F08091E80080FFF2
:104F7000F8CF8091E8008E778093E8000895209123
:104F8000E4003091E50095E64091EC00842F8170BB
:104F900040FF23C08091E80080FD1DC08091140374
:104FA000882399F0853099F08091EB0085FD11C040
:104FB0004091E4005091E5002417350729F3915002
:104FC00011F09A01E1CF84E0089582E0089583E032
:104FD000089581E0089580E008954091E80042FF3F
:104FE000DDCF08950E9460280E946828E0EEF0E07E
:104FF000808181608083E8EDF0E080818F7780831D
:1050000019BCA7EDB0E08C918E7F8C9380818F7E50
:1050100080831092130308950F931F93CF93DF9310
:105020000E9460280E946828C8EDD0E088818F77B0
:10503000888388818068888388818F7D888319BC74
:105040001092140310921003109212031092110385
:1050500000EE10E0F80180818B7F80838881816081
:10506000888342E060E080E00E946B27E1EEF0E0A0
:1050700080818E7F8083E2EEF0E08081816080839A
:10508000808188608083F80180818E7F8083888121
:1050900080618883DF91CF911F910F910895E8ED92
:1050A000F0E080818F7E8083E7EDF0E08081816099
:1050B000808384E082BF81E0809313030C940C28EA
:1050C000E8EDF0E080818E7F80831092E200089509
:1050D0001092DA001092E10008951F920F920FB61D
:1050E0000F9211242F933F934F935F936F937F936E
:1050F0008F939F93AF93BF93EF93FF938091E100C2
:1051000082FF0BC08091E20082FF07C08091E10026
:105110008B7F8093E1000E94E32A8091DA0080FF78
:105120001FC08091D80080FF1BC08091DA008E7F65
:105130008093DA008091D90080FF0DC080E189BDA5
:1051400082E189BD09B400FEFDCF81E080931403A4
:105150000E94CF2405C019BC109214030E94DD24C4
:105160008091E10080FF19C08091E20080FF15C0AE
:105170008091E2008E7F8093E2008091E200806166
:105180008093E2008091D80080628093D80019BC9F
:1051900085E0809314030E94E1248091E10084FF64
:1051A00030C08091E20084FF2CC080E189BD82E1A3
:1051B00089BD09B400FEFDCF8091D8008F7D80931A
:1051C000D8008091E1008F7E8093E1008091E20021
:1051D0008F7E8093E2008091E20081608093E20004
:1051E00080911003882311F084E007C08091E300D0
:1051F00087FD02C081E001C083E0809314030E9418
:10520000E2248091E10083FF29C08091E20083FFC6
:1052100025C08091E100877F8093E10082E0809348
:105220001403109210038091E1008E7F8093E100BF
:105230008091E2008E7F8093E2008091E2008061A5
:105240008093E20042E060E080E00E946B27809162
:10525000F00088608093F0000E94E024FF91EF91BD
:10526000BF91AF919F918F917F916F915F914F917E
:105270003F912F910F900FBE0F901F9018951F9286
:105280000F920FB60F9211242F933F934F935F937A
:105290006F937F938F939F93AF93BF93CF93DF933E
:1052A000EF93FF93C091E900CF708091EC00D82F6D
:1052B000D17080FDD0E81092E9008091F000877FE6
:1052C0008093F00078940E9483291092E9008091E5
:1052D000F00088608093F000CD2BCF70C093E90080
:1052E000FF91EF91DF91CF91BF91AF919F918F91FE
:1052F0007F916F915F914F913F912F910F900FBED2
:105300000F901F9018951F93CF93DF93CDB7DEB703
:10531000AA970FB6F894DEBF0FBECDBFE5E1F3E06C
:105320008091F100819323E0ED31F207C9F70E94EB
:10533000ED248091E80083FF2EC1809115039091A8
:105340001603492F50E04A30510508F024C1FA01F4
:10535000EC58FF4F0C94592B803821F0823809F01B
:105360001AC108C08091110390911203992389F00A
:1053700082600FC0809119038F70873008F00BC1D5
:105380008093E9008091EB0085FB882780F91092DB
:10539000E9009091E800977F9093E8008093F100F6
:1053A0001092F100D1C0282F2D7F09F0F4C088237E
:1053B00019F0823061F0EFC080911703813009F05D
:1053C000EAC0933009F080E0809312032EC08091F0
:1053D000170381112AC0809119038F702FEF280FB6
:1053E000263008F0D8C08093E9002091EB0020FF20
:1053F0001CC0933021F48091EB00806214C0909126
:10540000EB0090619093EB0021E030E0A90102C035
:10541000440F551F8A95E2F74093EA001092EA0084
:105420008091EB0088608093EB001092E9008091FE
:10543000E800877F8093E8000E94A027ACC081111C
:10544000AAC0109117031F778091E3008078812B09
:105450008093E3008091E800877F8093E8000E94BA
:10546000A0278091E80080FFFCCF8091E300806856
:105470008093E300111102C082E001C083E08093B9
:10548000140389C08058823008F085C080911703CA
:10549000909118038C3D53E0950779F583E08A835A
:1054A0008AE289834FB7F894DE01139620E03EE04C
:1054B00051E2E32FF0E050935700E49120FF03C046
:1054C000E295EF703F5FEF708E2F90E0EA3010F0C2
:1054D000C79601C0C0968D939D932F5F243149F7E5
:1054E0004FBF8091E800877F8093E8006AE270E018
:1054F000CE0101960E94AC2616C0609119037091EE
:105500001A03AE014F5F5F4F0E94F025BC01892B4B
:1055100009F441C09091E800977F9093E800898159
:105520009A810E940A278091E8008B778093E80097
:1055300032C0803881F58091E800877F8093E80051
:10554000809110038093F1008091E8008E7772CFF4
:10555000811121C080911703909118039927029718
:10556000D4F48091E800877F8093E800809117034E
:10557000809310030E94A02780911003811106C020
:105580008091E30087FD02C081E001C084E0809348
:1055900014030E94E3248091E80083FF0AC08091F5
:1055A000E800877F8093E8008091EB008062809321
:1055B000EB00AA960FB6F894DEBF0FBECDBFDF9109
:1055C000CF911F9108950895CF938091140388235C
:1055D000A1F0C091E900CF709091EC00892F81700B
:1055E00090FD80E8C82B1092E9008091E80083FDCF
:1055F0000E948329CF70C093E900CF910895DB0109
:105600008F939F930E947D2BBF91AF91A29F800D9E
:10561000911DA39F900DB29F900D11240895AA1B78
:10562000BB1B51E107C0AA1FBB1FA617B70710F08D
:10563000A61BB70B881F991F5A95A9F780959095BF
:10564000BC01CD01089597FB072E16F4009407D0F6
:1056500077FD09D00E940F2B07FC05D03EF49095F2
:1056600081959F4F0895709561957F4F0895A1E2B0
:105670001A2EAA1BBB1BFD010DC0AA1FBB1FEE1FCC
:10568000FF1FA217B307E407F50720F0A21BB30B17
:10569000E40BF50B661F771F881F991F1A9469F793
:1056A00060957095809590959B01AC01BD01CF01EF
:1056B0000895EE0FFF1F0590F491E02D09940E94CC
:1056C000672B332312F48A1B9B0B0C94782BA29F1D
:1056D000B001B39FC001A39F700D811D1124911DC6
:1056E000B29F700D811D1124911D08950E94672B9A
:1056F000B7FF0895821B930B08950E94672BA59F07
:10570000900DB49F900DA49F800D911D11240895BC
:10571000B7FF0C947D2B0E947D2B821B930B089569
:10572000FC014150504030F001900616D1F73197FE
:10573000CF010895882799270895FB01DC0104C053
:105740008D910190801921F441505040C8F7881B79
:10575000990B0895F999FECF92BD81BDF89A9927CA
:1057600080B50895A6E1B0E044E050E00C94E42B4D
:10577000A8E1B0E042E050E00C94E42B262FF99928
:10578000FECF92BD81BDF89A019700B4021639F0A0
:105790001FBA20BD0FB6F894FA9AF99A0FBE089571
:1057A0000396272F0E94BF2B0E94BE2B252F0E94FD
:1057B000BF2B242F0C94BF2B0196272F0E94BF2BA9
:1057C0000C94BE2BDC01CB01FC01F999FECF06C085
:1057D000F2BDE1BDF89A319600B40D9241505040AF
:0857E000B8F70895F894FFCF1B
:1057E8003B022808641E140A321E01010200100040
:1057F800101001191A1B1C1D1E1F20212239248E6E
:10580800246F246B24672401E200E900EA00B50054
:10581800B600B700CD008301CC008A019201940143
:105828002102230224022502260227022A02B300AB
:10583800B4006F007000818283E200E900EA00B5DD
:1058480000B600B700CD008301CC008A0192019414
:10585800012102230224022502260227022A02B37A
:1058680000B4006F0070008182833031323391922E
:1058780093969734366667F7F6F53790F0F1F400AB
:1058880001020202020606060909090909090F0FA1
:105898000F0F0F0F151515181919191919191919A5
:0458A8001919232483
:00000001FF
